{"abi":[{"type":"constructor","inputs":[{"name":"_ticketPrice","type":"uint256","internalType":"uint256"}],"stateMutability":"nonpayable"},{"type":"function","name":"buyTicket","inputs":[],"outputs":[],"stateMutability":"payable"},{"type":"function","name":"claimPrize","inputs":[{"name":"_roundId","type":"uint256","internalType":"uint256"}],"outputs":[],"stateMutability":"nonpayable"},{"type":"function","name":"claimRefund","inputs":[{"name":"_roundId","type":"uint256","internalType":"uint256"}],"outputs":[],"stateMutability":"nonpayable"},{"type":"function","name":"closeSale","inputs":[],"outputs":[],"stateMutability":"nonpayable"},{"type":"function","name":"commitHash","inputs":[{"name":"_hash","type":"bytes32","internalType":"bytes32"}],"outputs":[],"stateMutability":"payable"},{"type":"function","name":"committedHash","inputs":[{"name":"","type":"uint256","internalType":"uint256"}],"outputs":[{"name":"","type":"bytes32","internalType":"bytes32"}],"stateMutability":"view"},{"type":"function","name":"currentRound","inputs":[],"outputs":[{"name":"","type":"uint256","internalType":"uint256"}],"stateMutability":"view"},{"type":"function","name":"getParticipant","inputs":[{"name":"_roundId","type":"uint256","internalType":"uint256"},{"name":"index","type":"uint256","internalType":"uint256"}],"outputs":[{"name":"","type":"address","internalType":"address"}],"stateMutability":"view"},{"type":"function","name":"lockedCollateral","inputs":[{"name":"","type":"uint256","internalType":"uint256"}],"outputs":[{"name":"","type":"uint256","internalType":"uint256"}],"stateMutability":"view"},{"type":"function","name":"owner","inputs":[],"outputs":[{"name":"","type":"address","internalType":"address"}],"stateMutability":"view"},{"type":"function","name":"phase","inputs":[{"name":"","type":"uint256","internalType":"uint256"}],"outputs":[{"name":"","type":"uint8","internalType":"enum Lottery.Phase"}],"stateMutability":"view"},{"type":"function","name":"prizeClaimed","inputs":[{"name":"","type":"uint256","internalType":"uint256"}],"outputs":[{"name":"","type":"bool","internalType":"bool"}],"stateMutability":"view"},{"type":"function","name":"prizePool","inputs":[{"name":"","type":"uint256","internalType":"uint256"}],"outputs":[{"name":"","type":"uint256","internalType":"uint256"}],"stateMutability":"view"},{"type":"function","name":"renounceOwnership","inputs":[],"outputs":[],"stateMutability":"nonpayable"},{"type":"function","name":"revealAndDraw","inputs":[{"name":"_secret","type":"bytes32","internalType":"bytes32"}],"outputs":[],"stateMutability":"nonpayable"},{"type":"function","name":"slashOwner","inputs":[],"outputs":[],"stateMutability":"nonpayable"},{"type":"function","name":"startNewRound","inputs":[],"outputs":[],"stateMutability":"nonpayable"},{"type":"function","name":"targetBlock","inputs":[{"name":"","type":"uint256","internalType":"uint256"}],"outputs":[{"name":"","type":"uint256","internalType":"uint256"}],"stateMutability":"view"},{"type":"function","name":"ticketPrice","inputs":[],"outputs":[{"name":"","type":"uint256","internalType":"uint256"}],"stateMutability":"view"},{"type":"function","name":"totalTickets","inputs":[{"name":"_roundId","type":"uint256","internalType":"uint256"}],"outputs":[{"name":"","type":"uint256","internalType":"uint256"}],"stateMutability":"view"},{"type":"function","name":"transferOwnership","inputs":[{"name":"newOwner","type":"address","internalType":"address"}],"outputs":[],"stateMutability":"nonpayable"},{"type":"function","name":"userTickets","inputs":[{"name":"","type":"uint256","internalType":"uint256"},{"name":"","type":"address","internalType":"address"}],"outputs":[{"name":"","type":"uint256","internalType":"uint256"}],"stateMutability":"view"},{"type":"function","name":"winner","inputs":[{"name":"","type":"uint256","internalType":"uint256"}],"outputs":[{"name":"","type":"address","internalType":"address"}],"stateMutability":"view"},{"type":"event","name":"HashCommitted","inputs":[{"name":"roundId","type":"uint256","indexed":true,"internalType":"uint256"},{"name":"hash","type":"bytes32","indexed":true,"internalType":"bytes32"}],"anonymous":false},{"type":"event","name":"OwnerSlashed","inputs":[{"name":"roundId","type":"uint256","indexed":true,"internalType":"uint256"}],"anonymous":false},{"type":"event","name":"OwnershipTransferred","inputs":[{"name":"previousOwner","type":"address","indexed":true,"internalType":"address"},{"name":"newOwner","type":"address","indexed":true,"internalType":"address"}],"anonymous":false},{"type":"event","name":"PrizeClaimed","inputs":[{"name":"roundId","type":"uint256","indexed":true,"internalType":"uint256"},{"name":"winner","type":"address","indexed":true,"internalType":"address"},{"name":"amount","type":"uint256","indexed":false,"internalType":"uint256"}],"anonymous":false},{"type":"event","name":"RefundClaimed","inputs":[{"name":"roundId","type":"uint256","indexed":true,"internalType":"uint256"},{"name":"participant","type":"address","indexed":true,"internalType":"address"},{"name":"amount","type":"uint256","indexed":false,"internalType":"uint256"}],"anonymous":false},{"type":"event","name":"RoundStarted","inputs":[{"name":"roundId","type":"uint256","indexed":true,"internalType":"uint256"}],"anonymous":false},{"type":"event","name":"SaleClosed","inputs":[{"name":"roundId","type":"uint256","indexed":true,"internalType":"uint256"}],"anonymous":false},{"type":"event","name":"TicketPurchased","inputs":[{"name":"roundId","type":"uint256","indexed":true,"internalType":"uint256"},{"name":"buyer","type":"address","indexed":true,"internalType":"address"},{"name":"ticketId","type":"uint256","indexed":false,"internalType":"uint256"}],"anonymous":false},{"type":"event","name":"WinnerDrawn","inputs":[{"name":"roundId","type":"uint256","indexed":true,"internalType":"uint256"},{"name":"winner","type":"address","indexed":true,"internalType":"address"},{"name":"prizeAmount","type":"uint256","indexed":false,"internalType":"uint256"}],"anonymous":false},{"type":"error","name":"OwnableInvalidOwner","inputs":[{"name":"owner","type":"address","internalType":"address"}]},{"type":"error","name":"OwnableUnauthorizedAccount","inputs":[{"name":"account","type":"address","internalType":"address"}]},{"type":"error","name":"ReentrancyGuardReentrantCall","inputs":[]}],"bytecode":{"object":"0x608060405234801561000f575f5ffd5b5060405161312f38038061312f833981810160405281019061003191906102c0565b335f73ffffffffffffffffffffffffffffffffffffffff168173ffffffffffffffffffffffffffffffffffffffff16036100a2575f6040517f1e4fbdf7000000000000000000000000000000000000000000000000000000008152600401610099919061032a565b60405180910390fd5b6100b18161019660201b60201c565b5060016100d06100c561025760201b60201c565b61028060201b60201c565b5f01819055505f8111610118576040517f08c379a000000000000000000000000000000000000000000000000000000000815260040161010f906103c3565b60405180910390fd5b8060018190555060016002819055505f60035f60025481526020019081526020015f205f6101000a81548160ff0219169083600481111561015c5761015b6103e1565b5b02179055506002547f33a701182892fd888ed152ca2ac23771a32e814469b7cd255965471e1af3a65960405160405180910390a25061040e565b5f5f5f9054906101000a900473ffffffffffffffffffffffffffffffffffffffff169050815f5f6101000a81548173ffffffffffffffffffffffffffffffffffffffff021916908373ffffffffffffffffffffffffffffffffffffffff1602179055508173ffffffffffffffffffffffffffffffffffffffff168173ffffffffffffffffffffffffffffffffffffffff167f8be0079c531659141344cd1fd0a4f28419497f9722a3daafe3b4186f6b6457e060405160405180910390a35050565b5f7f9b779b17422d0df92223018b32b4d1fa46e071723d6817e2486d003becc55f005f1b905090565b5f819050919050565b5f5ffd5b5f819050919050565b61029f8161028d565b81146102a9575f5ffd5b50565b5f815190506102ba81610296565b92915050565b5f602082840312156102d5576102d4610289565b5b5f6102e2848285016102ac565b91505092915050565b5f73ffffffffffffffffffffffffffffffffffffffff82169050919050565b5f610314826102eb565b9050919050565b6103248161030a565b82525050565b5f60208201905061033d5f83018461031b565b92915050565b5f82825260208201905092915050565b7f4c6f74746572793a207469636b6574207072696365206d757374206265203e205f8201527f3000000000000000000000000000000000000000000000000000000000000000602082015250565b5f6103ad602183610343565b91506103b882610353565b604082019050919050565b5f6020820190508181035f8301526103da816103a1565b9050919050565b7f4e487b71000000000000000000000000000000000000000000000000000000005f52602160045260245ffd5b612d148061041b5f395ff3fe60806040526004361061013f575f3560e01c80638385eae0116100b5578063da28a8411161006e578063da28a8411461043b578063dfab983c14610477578063e1a9888e146104b3578063edca914c146104ef578063ee55efee146104f9578063f2fde38b1461050f5761013f565b80638385eae0146103315780638a19c8bc1461036d5780638da5cb5b14610397578063bd85948c146103c1578063d636e6fa146103d7578063d7098154146104135761013f565b806336bcc4a91161010757806336bcc4a9146102375780633a95d1551461025f5780633c37b6401461029b5780633e48f6f8146102b75780635b7baf64146102f3578063715018a61461031b5761013f565b80630123d0cd146101435780631209b1f614610159578063135f8aa7146101835780631aed59f0146101bf5780631cbeae5e146101fb575b5f5ffd5b34801561014e575f5ffd5b50610157610537565b005b348015610164575f5ffd5b5061016d61068a565b60405161017a9190611cab565b60405180910390f35b34801561018e575f5ffd5b506101a960048036038101906101a49190611cf2565b610690565b6040516101b69190611d90565b60405180910390f35b3480156101ca575f5ffd5b506101e560048036038101906101e09190611da9565b6106ad565b6040516101f29190611e26565b60405180910390f35b348015610206575f5ffd5b50610221600480360381019061021c9190611cf2565b610757565b60405161022e9190611e26565b60405180910390f35b348015610242575f5ffd5b5061025d60048036038101906102589190611e72565b610787565b005b34801561026a575f5ffd5b5061028560048036038101906102809190611cf2565b610c44565b6040516102929190611cab565b60405180910390f35b6102b560048036038101906102b09190611e72565b610c59565b005b3480156102c2575f5ffd5b506102dd60048036038101906102d89190611cf2565b610e87565b6040516102ea9190611cab565b60405180910390f35b3480156102fe575f5ffd5b5061031960048036038101906103149190611cf2565b610e9c565b005b348015610326575f5ffd5b5061032f61116f565b005b34801561033c575f5ffd5b5061035760048036038101906103529190611cf2565b611182565b6040516103649190611cab565b60405180910390f35b348015610378575f5ffd5b5061038161119f565b60405161038e9190611cab565b60405180910390f35b3480156103a2575f5ffd5b506103ab6111a5565b6040516103b89190611e26565b60405180910390f35b3480156103cc575f5ffd5b506103d56111cc565b005b3480156103e2575f5ffd5b506103fd60048036038101906103f89190611cf2565b611329565b60405161040a9190611cab565b60405180910390f35b34801561041e575f5ffd5b5061043960048036038101906104349190611cf2565b61133e565b005b348015610446575f5ffd5b50610461600480360381019061045c9190611ec7565b61161e565b60405161046e9190611cab565b60405180910390f35b348015610482575f5ffd5b5061049d60048036038101906104989190611cf2565b61163e565b6040516104aa9190611f1f565b60405180910390f35b3480156104be575f5ffd5b506104d960048036038101906104d49190611cf2565b61165b565b6040516104e69190611f47565b60405180910390f35b6104f7611670565b005b348015610504575f5ffd5b5061050d6118a4565b005b34801561051a575f5ffd5b5061053560048036038101906105309190611f60565b6119f5565b005b6002600481111561054b5761054a611d1d565b5b60035f60025481526020019081526020015f205f9054906101000a900460ff16600481111561057d5761057c611d1d565b5b146105bd576040517f08c379a00000000000000000000000000000000000000000000000000000000081526004016105b490611fe5565b60405180910390fd5b60fa60085f60025481526020019081526020015f20546105dd9190612030565b431161061e576040517f08c379a0000000000000000000000000000000000000000000000000000000008152600401610615906120d3565b60405180910390fd5b600460035f60025481526020019081526020015f205f6101000a81548160ff0219169083600481111561065457610653611d1d565b5b02179055506002547f420a8dfbbefd17de55175465721f075c7e5d44d613a0e7c4247d4f884c7b3f7c60405160405180910390a2565b60015481565b6003602052805f5260405f205f915054906101000a900460ff1681565b5f60045f8481526020019081526020015f20805490508210610704576040517f08c379a00000000000000000000000000000000000000000000000000000000081526004016106fb9061213b565b60405180910390fd5b60045f8481526020019081526020015f20828154811061072757610726612159565b5b905f5260205f20015f9054906101000a900473ffffffffffffffffffffffffffffffffffffffff16905092915050565b6006602052805f5260405f205f915054906101000a900473ffffffffffffffffffffffffffffffffffffffff1681565b61078f611a79565b600260048111156107a3576107a2611d1d565b5b60035f60025481526020019081526020015f205f9054906101000a900460ff1660048111156107d5576107d4611d1d565b5b14610815576040517f08c379a000000000000000000000000000000000000000000000000000000000815260040161080c90611fe5565b60405180910390fd5b60085f60025481526020019081526020015f2054431161086a576040517f08c379a0000000000000000000000000000000000000000000000000000000008152600401610861906121f6565b60405180910390fd5b60fa60085f60025481526020019081526020015f205461088a9190612030565b4311156108cc576040517f08c379a00000000000000000000000000000000000000000000000000000000081526004016108c39061225e565b60405180910390fd5b60055f60025481526020019081526020015f2054816040516020016108f1919061229c565b6040516020818303038152906040528051906020012014610947576040517f08c379a000000000000000000000000000000000000000000000000000000000815260040161093e90612326565b60405180910390fd5b5f60045f60025481526020019081526020015f208054905090505f60085f60025481526020019081526020015f20544090505f5f1b81036109bd576040517f08c379a00000000000000000000000000000000000000000000000000000000081526004016109b49061238e565b60405180910390fd5b5f828483856040516020016109d4939291906123cc565b604051602081830303815290604052805190602001205f1c6109f69190612435565b905060045f60025481526020019081526020015f208181548110610a1d57610a1c612159565b5b905f5260205f20015f9054906101000a900473ffffffffffffffffffffffffffffffffffffffff1660065f60025481526020019081526020015f205f6101000a81548173ffffffffffffffffffffffffffffffffffffffff021916908373ffffffffffffffffffffffffffffffffffffffff1602179055506003805f60025481526020019081526020015f205f6101000a81548160ff02191690836004811115610aca57610ac9611d1d565b5b02179055505f60095f60025481526020019081526020015f205490505f60095f60025481526020019081526020015f20819055505f3373ffffffffffffffffffffffffffffffffffffffff1682604051610b2390612492565b5f6040518083038185875af1925050503d805f8114610b5d576040519150601f19603f3d011682016040523d82523d5f602084013e610b62565b606091505b5050905080610ba6576040517f08c379a0000000000000000000000000000000000000000000000000000000008152600401610b9d90612516565b60405180910390fd5b60065f60025481526020019081526020015f205f9054906101000a900473ffffffffffffffffffffffffffffffffffffffff1673ffffffffffffffffffffffffffffffffffffffff166002547f9c1e776cbdf221420917b223eb09503e61c8e990a1c09065cbf15bdff06a555e60075f60025481526020019081526020015f2054604051610c349190611cab565b60405180910390a3505050505050565b6008602052805f5260405f205f915090505481565b610c61611a79565b60016004811115610c7557610c74611d1d565b5b60035f60025481526020019081526020015f205f9054906101000a900460ff166004811115610ca757610ca6611d1d565b5b14610ce7576040517f08c379a0000000000000000000000000000000000000000000000000000000008152600401610cde9061257e565b60405180910390fd5b5f5f1b8103610d2b576040517f08c379a0000000000000000000000000000000000000000000000000000000008152600401610d22906125e6565b60405180910390fd5b5f60045f60025481526020019081526020015f208054905011610d83576040517f08c379a0000000000000000000000000000000000000000000000000000000008152600401610d7a9061264e565b60405180910390fd5b5f3411610dc5576040517f08c379a0000000000000000000000000000000000000000000000000000000008152600401610dbc906126b6565b60405180910390fd5b3460095f60025481526020019081526020015f2081905550600a43610dea9190612030565b60085f60025481526020019081526020015f20819055508060055f60025481526020019081526020015f2081905550600260035f60025481526020019081526020015f205f6101000a81548160ff02191690836004811115610e4f57610e4e611d1d565b5b0217905550806002547fe0897596a7688252410e080c1424ddd41702dcdd67a3f1b95f404f411838424d60405160405180910390a350565b6009602052805f5260405f205f915090505481565b610ea4611b00565b600480811115610eb757610eb6611d1d565b5b60035f8381526020019081526020015f205f9054906101000a900460ff166004811115610ee757610ee6611d1d565b5b14610f27576040517f08c379a0000000000000000000000000000000000000000000000000000000008152600401610f1e9061271e565b60405180910390fd5b5f600a5f8381526020019081526020015f205f3373ffffffffffffffffffffffffffffffffffffffff1673ffffffffffffffffffffffffffffffffffffffff1681526020019081526020015f205490505f8111610fb9576040517f08c379a0000000000000000000000000000000000000000000000000000000008152600401610fb090612786565b60405180910390fd5b5f600a5f8481526020019081526020015f205f3373ffffffffffffffffffffffffffffffffffffffff1673ffffffffffffffffffffffffffffffffffffffff1681526020019081526020015f20819055505f60095f8481526020019081526020015f205460075f8581526020019081526020015f20546110399190612030565b90505f60045f8581526020019081526020015f2080549050828461105d91906127a4565b61106791906127e5565b90505f3373ffffffffffffffffffffffffffffffffffffffff168260405161108e90612492565b5f6040518083038185875af1925050503d805f81146110c8576040519150601f19603f3d011682016040523d82523d5f602084013e6110cd565b606091505b5050905080611111576040517f08c379a00000000000000000000000000000000000000000000000000000000081526004016111089061285f565b60405180910390fd5b3373ffffffffffffffffffffffffffffffffffffffff16857ff3f402280ef0a7905e124aa621b65eaeb2725c343e8b36d398ed78c29daf285c846040516111589190611cab565b60405180910390a35050505061116c611b22565b50565b611177611a79565b6111805f611b3c565b565b5f60045f8381526020019081526020015f20805490509050919050565b60025481565b5f5f5f9054906101000a900473ffffffffffffffffffffffffffffffffffffffff16905090565b6111d4611a79565b600360048111156111e8576111e7611d1d565b5b60035f60025481526020019081526020015f205f9054906101000a900460ff16600481111561121a57611219611d1d565b5b1480611268575060048081111561123457611233611d1d565b5b60035f60025481526020019081526020015f205f9054906101000a900460ff16600481111561126657611265611d1d565b5b145b6112a7576040517f08c379a000000000000000000000000000000000000000000000000000000000815260040161129e906128ed565b60405180910390fd5b60025f8154809291906112b99061290b565b91905055505f60035f60025481526020019081526020015f205f6101000a81548160ff021916908360048111156112f3576112f2611d1d565b5b02179055506002547f33a701182892fd888ed152ca2ac23771a32e814469b7cd255965471e1af3a65960405160405180910390a2565b6007602052805f5260405f205f915090505481565b611346611b00565b6003600481111561135a57611359611d1d565b5b60035f8381526020019081526020015f205f9054906101000a900460ff16600481111561138a57611389611d1d565b5b146113ca576040517f08c379a00000000000000000000000000000000000000000000000000000000081526004016113c19061299c565b60405180910390fd5b60065f8281526020019081526020015f205f9054906101000a900473ffffffffffffffffffffffffffffffffffffffff1673ffffffffffffffffffffffffffffffffffffffff163373ffffffffffffffffffffffffffffffffffffffff1614611468576040517f08c379a000000000000000000000000000000000000000000000000000000000815260040161145f90612a2a565b60405180910390fd5b600b5f8281526020019081526020015f205f9054906101000a900460ff16156114c6576040517f08c379a00000000000000000000000000000000000000000000000000000000081526004016114bd90612a92565b60405180910390fd5b5f60075f8381526020019081526020015f205490505f60075f8481526020019081526020015f20819055506001600b5f8481526020019081526020015f205f6101000a81548160ff0219169083151502179055505f3373ffffffffffffffffffffffffffffffffffffffff168260405161153f90612492565b5f6040518083038185875af1925050503d805f8114611579576040519150601f19603f3d011682016040523d82523d5f602084013e61157e565b606091505b50509050806115c2576040517f08c379a00000000000000000000000000000000000000000000000000000000081526004016115b990612afa565b60405180910390fd5b3373ffffffffffffffffffffffffffffffffffffffff16837f4aa95f981a8337cb337de335b965507da0879c3b49f799d20058e913f5ad2c26846040516116099190611cab565b60405180910390a3505061161b611b22565b50565b600a602052815f5260405f20602052805f5260405f205f91509150505481565b600b602052805f5260405f205f915054906101000a900460ff1681565b6005602052805f5260405f205f915090505481565b5f600481111561168357611682611d1d565b5b60035f60025481526020019081526020015f205f9054906101000a900460ff1660048111156116b5576116b4611d1d565b5b146116f5576040517f08c379a00000000000000000000000000000000000000000000000000000000081526004016116ec90612b62565b60405180910390fd5b6001543414611739576040517f08c379a000000000000000000000000000000000000000000000000000000000815260040161173090612bca565b60405180910390fd5b5f60045f60025481526020019081526020015f2080549050905060045f60025481526020019081526020015f2033908060018154018082558091505060019003905f5260205f20015f9091909190916101000a81548173ffffffffffffffffffffffffffffffffffffffff021916908373ffffffffffffffffffffffffffffffffffffffff1602179055503460075f60025481526020019081526020015f205f8282546117e69190612030565b92505081905550600a5f60025481526020019081526020015f205f3373ffffffffffffffffffffffffffffffffffffffff1673ffffffffffffffffffffffffffffffffffffffff1681526020019081526020015f205f81548092919061184b9061290b565b91905055503373ffffffffffffffffffffffffffffffffffffffff166002547fdbaaf4c87ce30816c961a81d110622a3227ede77953d4383d514ff88ab2e0fd3836040516118999190611cab565b60405180910390a350565b6118ac611a79565b5f60048111156118bf576118be611d1d565b5b60035f60025481526020019081526020015f205f9054906101000a900460ff1660048111156118f1576118f0611d1d565b5b14611931576040517f08c379a000000000000000000000000000000000000000000000000000000000815260040161192890612c32565b60405180910390fd5b5f60045f60025481526020019081526020015f208054905011611989576040517f08c379a000000000000000000000000000000000000000000000000000000000815260040161198090612cc0565b60405180910390fd5b600160035f60025481526020019081526020015f205f6101000a81548160ff021916908360048111156119bf576119be611d1d565b5b02179055506002547fcb67f20f64495b30f15524c55f90201dd6571d6b5c19dac183d2aeb25315b2dc60405160405180910390a2565b6119fd611a79565b5f73ffffffffffffffffffffffffffffffffffffffff168173ffffffffffffffffffffffffffffffffffffffff1603611a6d575f6040517f1e4fbdf7000000000000000000000000000000000000000000000000000000008152600401611a649190611e26565b60405180910390fd5b611a7681611b3c565b50565b611a81611bfd565b73ffffffffffffffffffffffffffffffffffffffff16611a9f6111a5565b73ffffffffffffffffffffffffffffffffffffffff1614611afe57611ac2611bfd565b6040517f118cdaa7000000000000000000000000000000000000000000000000000000008152600401611af59190611e26565b60405180910390fd5b565b611b08611c04565b6002611b1a611b15611c45565b611c6e565b5f0181905550565b6001611b34611b2f611c45565b611c6e565b5f0181905550565b5f5f5f9054906101000a900473ffffffffffffffffffffffffffffffffffffffff169050815f5f6101000a81548173ffffffffffffffffffffffffffffffffffffffff021916908373ffffffffffffffffffffffffffffffffffffffff1602179055508173ffffffffffffffffffffffffffffffffffffffff168173ffffffffffffffffffffffffffffffffffffffff167f8be0079c531659141344cd1fd0a4f28419497f9722a3daafe3b4186f6b6457e060405160405180910390a35050565b5f33905090565b611c0c611c77565b15611c43576040517f3ee5aeb500000000000000000000000000000000000000000000000000000000815260040160405180910390fd5b565b5f7f9b779b17422d0df92223018b32b4d1fa46e071723d6817e2486d003becc55f005f1b905090565b5f819050919050565b5f6002611c8a611c85611c45565b611c6e565b5f015414905090565b5f819050919050565b611ca581611c93565b82525050565b5f602082019050611cbe5f830184611c9c565b92915050565b5f5ffd5b611cd181611c93565b8114611cdb575f5ffd5b50565b5f81359050611cec81611cc8565b92915050565b5f60208284031215611d0757611d06611cc4565b5b5f611d1484828501611cde565b91505092915050565b7f4e487b71000000000000000000000000000000000000000000000000000000005f52602160045260245ffd5b60058110611d5b57611d5a611d1d565b5b50565b5f819050611d6b82611d4a565b919050565b5f611d7a82611d5e565b9050919050565b611d8a81611d70565b82525050565b5f602082019050611da35f830184611d81565b92915050565b5f5f60408385031215611dbf57611dbe611cc4565b5b5f611dcc85828601611cde565b9250506020611ddd85828601611cde565b9150509250929050565b5f73ffffffffffffffffffffffffffffffffffffffff82169050919050565b5f611e1082611de7565b9050919050565b611e2081611e06565b82525050565b5f602082019050611e395f830184611e17565b92915050565b5f819050919050565b611e5181611e3f565b8114611e5b575f5ffd5b50565b5f81359050611e6c81611e48565b92915050565b5f60208284031215611e8757611e86611cc4565b5b5f611e9484828501611e5e565b91505092915050565b611ea681611e06565b8114611eb0575f5ffd5b50565b5f81359050611ec181611e9d565b92915050565b5f5f60408385031215611edd57611edc611cc4565b5b5f611eea85828601611cde565b9250506020611efb85828601611eb3565b9150509250929050565b5f8115159050919050565b611f1981611f05565b82525050565b5f602082019050611f325f830184611f10565b92915050565b611f4181611e3f565b82525050565b5f602082019050611f5a5f830184611f38565b92915050565b5f60208284031215611f7557611f74611cc4565b5b5f611f8284828501611eb3565b91505092915050565b5f82825260208201905092915050565b7f4c6f74746572793a206e6f7420696e20636f6d6d6974746564207068617365005f82015250565b5f611fcf601f83611f8b565b9150611fda82611f9b565b602082019050919050565b5f6020820190508181035f830152611ffc81611fc3565b9050919050565b7f4e487b71000000000000000000000000000000000000000000000000000000005f52601160045260245ffd5b5f61203a82611c93565b915061204583611c93565b925082820190508082111561205d5761205c612003565b5b92915050565b7f4c6f74746572793a2072657665616c20646561646c696e65206e6f74207061735f8201527f7365640000000000000000000000000000000000000000000000000000000000602082015250565b5f6120bd602383611f8b565b91506120c882612063565b604082019050919050565b5f6020820190508181035f8301526120ea816120b1565b9050919050565b7f4c6f74746572793a20696e646578206f7574206f6620626f756e6473000000005f82015250565b5f612125601c83611f8b565b9150612130826120f1565b602082019050919050565b5f6020820190508181035f83015261215281612119565b9050919050565b7f4e487b71000000000000000000000000000000000000000000000000000000005f52603260045260245ffd5b7f4c6f74746572793a2074617267657420626c6f636b206e6f74206d696e6564205f8201527f7965740000000000000000000000000000000000000000000000000000000000602082015250565b5f6121e0602383611f8b565b91506121eb82612186565b604082019050919050565b5f6020820190508181035f83015261220d816121d4565b9050919050565b7f4c6f74746572793a20626c6f636b6861736820657870697265640000000000005f82015250565b5f612248601a83611f8b565b915061225382612214565b602082019050919050565b5f6020820190508181035f8301526122758161223c565b9050919050565b5f819050919050565b61229661229182611e3f565b61227c565b82525050565b5f6122a78284612285565b60208201915081905092915050565b7f4c6f74746572793a2073656372657420646f6573206e6f74206d6174636820635f8201527f6f6d6d6974746564206861736800000000000000000000000000000000000000602082015250565b5f612310602d83611f8b565b915061231b826122b6565b604082019050919050565b5f6020820190508181035f83015261233d81612304565b9050919050565b7f4c6f74746572793a20626c6f636b68617368206973207a65726f0000000000005f82015250565b5f612378601a83611f8b565b915061238382612344565b602082019050919050565b5f6020820190508181035f8301526123a58161236c565b9050919050565b5f819050919050565b6123c66123c182611c93565b6123ac565b82525050565b5f6123d78286612285565b6020820191506123e78285612285565b6020820191506123f782846123b5565b602082019150819050949350505050565b7f4e487b71000000000000000000000000000000000000000000000000000000005f52601260045260245ffd5b5f61243f82611c93565b915061244a83611c93565b92508261245a57612459612408565b5b828206905092915050565b5f81905092915050565b50565b5f61247d5f83612465565b91506124888261246f565b5f82019050919050565b5f61249c82612472565b9150819050919050565b7f4c6f74746572793a20636f6c6c61746572616c2072657475726e206661696c655f8201527f6400000000000000000000000000000000000000000000000000000000000000602082015250565b5f612500602183611f8b565b915061250b826124a6565b604082019050919050565b5f6020820190508181035f83015261252d816124f4565b9050919050565b7f4c6f74746572793a206d75737420636c6f73652073616c6520666972737400005f82015250565b5f612568601e83611f8b565b915061257382612534565b602082019050919050565b5f6020820190508181035f8301526125958161255c565b9050919050565b7f4c6f74746572793a20686173682063616e6e6f74206265207a65726f000000005f82015250565b5f6125d0601c83611f8b565b91506125db8261259c565b602082019050919050565b5f6020820190508181035f8301526125fd816125c4565b9050919050565b7f4c6f74746572793a206e6f207061727469636970616e747300000000000000005f82015250565b5f612638601883611f8b565b915061264382612604565b602082019050919050565b5f6020820190508181035f8301526126658161262c565b9050919050565b7f4c6f74746572793a206d757374206465706f73697420636f6c6c61746572616c5f82015250565b5f6126a0602083611f8b565b91506126ab8261266c565b602082019050919050565b5f6020820190508181035f8301526126cd81612694565b9050919050565b7f4c6f74746572793a206f776e6572206e6f7420736c61736865640000000000005f82015250565b5f612708601a83611f8b565b9150612713826126d4565b602082019050919050565b5f6020820190508181035f830152612735816126fc565b9050919050565b7f4c6f74746572793a206e6f207469636b65747320746f20726566756e640000005f82015250565b5f612770601d83611f8b565b915061277b8261273c565b602082019050919050565b5f6020820190508181035f83015261279d81612764565b9050919050565b5f6127ae82611c93565b91506127b983611c93565b92508282026127c781611c93565b915082820484148315176127de576127dd612003565b5b5092915050565b5f6127ef82611c93565b91506127fa83611c93565b92508261280a57612809612408565b5b828204905092915050565b7f4c6f74746572793a20726566756e64207472616e73666572206661696c6564005f82015250565b5f612849601f83611f8b565b915061285482612815565b602082019050919050565b5f6020820190508181035f8301526128768161283d565b9050919050565b7f4c6f74746572793a2063757272656e7420726f756e64206e6f742066696e69735f8201527f6865640000000000000000000000000000000000000000000000000000000000602082015250565b5f6128d7602383611f8b565b91506128e28261287d565b604082019050919050565b5f6020820190508181035f830152612904816128cb565b9050919050565b5f61291582611c93565b91507fffffffffffffffffffffffffffffffffffffffffffffffffffffffffffffffff820361294757612946612003565b5b600182019050919050565b7f4c6f74746572793a207072697a65206e6f742079657420617661696c61626c655f82015250565b5f612986602083611f8b565b915061299182612952565b602082019050919050565b5f6020820190508181035f8301526129b38161297a565b9050919050565b7f4c6f74746572793a2063616c6c6572206973206e6f74207468652077696e6e655f8201527f7200000000000000000000000000000000000000000000000000000000000000602082015250565b5f612a14602183611f8b565b9150612a1f826129ba565b604082019050919050565b5f6020820190508181035f830152612a4181612a08565b9050919050565b7f4c6f74746572793a207072697a6520616c726561647920636c61696d656400005f82015250565b5f612a7c601e83611f8b565b9150612a8782612a48565b602082019050919050565b5f6020820190508181035f830152612aa981612a70565b9050919050565b7f4c6f74746572793a207072697a65207472616e73666572206661696c656400005f82015250565b5f612ae4601e83611f8b565b9150612aef82612ab0565b602082019050919050565b5f6020820190508181035f830152612b1181612ad8565b9050919050565b7f4c6f74746572793a2073616c6520697320636c6f7365640000000000000000005f82015250565b5f612b4c601783611f8b565b9150612b5782612b18565b602082019050919050565b5f6020820190508181035f830152612b7981612b40565b9050919050565b7f4c6f74746572793a20696e636f7272656374207469636b6574207072696365005f82015250565b5f612bb4601f83611f8b565b9150612bbf82612b80565b602082019050919050565b5f6020820190508181035f830152612be181612ba8565b9050919050565b7f4c6f74746572793a2073616c65206973206e6f74206f70656e000000000000005f82015250565b5f612c1c601983611f8b565b9150612c2782612be8565b602082019050919050565b5f6020820190508181035f830152612c4981612c10565b9050919050565b7f4c6f74746572793a206e6f207061727469636970616e747320746f20636c6f735f8201527f652073616c6520666f7200000000000000000000000000000000000000000000602082015250565b5f612caa602a83611f8b565b9150612cb582612c50565b604082019050919050565b5f6020820190508181035f830152612cd781612c9e565b905091905056fea26469706673582212204318907fd520a5857503f6654f4ef35950265c0321e125288ecc290a3255137064736f6c63430008210033","linkReferences":{}},"methodIdentifiers":{"buyTicket()":"edca914c","claimPrize(uint256)":"d7098154","claimRefund(uint256)":"5b7baf64","closeSale()":"ee55efee","commitHash(bytes32)":"3c37b640","committedHash(uint256)":"e1a9888e","currentRound()":"8a19c8bc","getParticipant(uint256,uint256)":"1aed59f0","lockedCollateral(uint256)":"3e48f6f8","owner()":"8da5cb5b","phase(uint256)":"135f8aa7","prizeClaimed(uint256)":"dfab983c","prizePool(uint256)":"d636e6fa","renounceOwnership()":"715018a6","revealAndDraw(bytes32)":"36bcc4a9","slashOwner()":"0123d0cd","startNewRound()":"bd85948c","targetBlock(uint256)":"3a95d155","ticketPrice()":"1209b1f6","totalTickets(uint256)":"8385eae0","transferOwnership(address)":"f2fde38b","userTickets(uint256,address)":"da28a841","winner(uint256)":"1cbeae5e"},"id":4}